:020000040800F2
:10000000C00B00105D0200086502000867020008CE
:10001000690200086B0200086D0200080000000081
:100020000000000000000000000000009D0100082A
:100030007102000800000000F9010008011C00081E
:100040007702000877020008770200082D1A0008DE
:1000500077020008770200084910000877020008BC
:10006000770200087702000877020008770200088C
:10007000770200087702000877020008770200087C
:10008000770200087702000877020008770200086C
:10009000770200087702000877020008770200085C
:1000A000770200087702000877020008770200084C
:1000B0009D1C0008C11C0008E91C0008770200080C
:1000C000770200087702000877020008770200082C
:1000D00077020008A521000877020008D121000856
:1000E0007702000805190008770200087702000867
:1000F00077020008770200087702000877020008FC
:100100007702000877020008111D00087702000836
:100110007702000877020008391D000877020008FE
:1001200077020008770200087702000877020008CB
:1001300077020008770200087702000877020008BB
:1001400077020008770200087702000877020008AB
:10015000770200087702000877020008770200089B
:10016000770200087702000877020008770200088B
:10017000770200087702000877020008770200087B
:100180007702000877020008DFF80CD000F0A2FB2D
:1001900000480047952D0008C00B00102C4B196833
:1001A0000868B0E8F04F80F30988BFF36F8F4FF015
:1001B000000080F3118870470000000008480068C4
:1001C000006880F308884FF0000080F3148862B65E
:1001D00061B6BFF34F8FBFF36F8F00DF00BF00BF6B
:1001E00008ED00E0DFF80C00016841F470010160E7
:1001F000704700BF88ED00E0EFF30980BFF36F8F19
:10020000134B1A681EF0100F08BF20ED108A20E96A
:10021000F04F106009B44FF0500080F31188BFF325
:100220004F8FBFF36F8F03F0B5FE4FF0000080F3E8
:10023000118809BC19680868B0E8F04F1EF0100F6B
:1002400008BFB0EC108A80F30988BFF36F8F704746
:100250008C000010EFF305807047000006488047CF
:1002600006480047FEE7FEE7FEE7FEE7FEE7FEE79B
:10027000FEE7FEE7FEE7FEE7351C000889010008FF
:1002800040EA01039B0703D009E008C9121F08C018
:10029000042AFAD203E011F8013B00F8013B521E98
:1002A000F9D27047D2B201E000F8012B491EFBD20F
:1002B00070470022F6E710B513460A460446194671
:1002C000FFF7F0FF204610BD421C10F8011B00296B
:1002D000FBD1801A704710B5002200E0521C835CED
:1002E0008C5CA34201D1002BF8D1D8B2E1B2401A04
:1002F00010BD2DE9FE4F804681EA0300C00F0C4679
:10030000009021F0004123F00045B8EB0200A94124
:1003100005D24046214690461C460B46024623F035
:100320000040104347D0270DC7F30A00C3F30A511A
:100330000290401A019040286BDAC3F3130040F496
:10034000801B0098924620B10023D2EB030A63EB96
:100350000B0B01985946C0F14002504600F065F978
:1003600006460D4650465946019A00F06DF910EBCD
:1003700008006141002487EA115284EAE7731A43B6
:1003800040D0009A62B3019A012A4FEA075215DC65
:10039000001B61EB02014FF0004202EA0752CDE977
:1003A0000042001C41F5801132462B4600F0A4F9B2
:1003B00003B0BDE8F08F40462146F9E7001B61EB32
:1003C0000201001C41F5801300185B412018A2F5C2
:1003D000001747EB030140EAD570B6196D4111E0F3
:1003E0006D084FEA360645EAC0754FEA0752001B12
:1003F00061EB0201001C41F5801149084FEA300011
:100400000019514132462B4603B0BDE8F04F00F0D1
:1004100064B90098012240000023D0EB020263EB94
:10042000E073009821464FEAE074B8EB000061EBFE
:100430000401E9E783F000435BE781F0004158E7FE
:100440002DE9FE4F81EA030404F0004421F000414D
:1004500000944FF0000B23F0004350EA01045ED0FB
:1004600052EA03045BD0C3F30A54C1F30A552C4487
:10047000A4F2F3340194A0FB0254C1F3130141F43C
:100480008011C3F3130343F4801301FB024400FB08
:10049000034E840A970A44EA815447EA8357A4FB2F
:1004A000076802958D0A05FB07854FEA932C04FB2C
:1004B0000C542705029D4FEA065847EA1637B5EB5C
:1004C00008056EEB070C870E920E47EA811742EA89
:1004D0008312A7FB0201B6EB0B0164EB00042B0DAA
:1004E00043EA0C335E1844EB1C50DA465146E7FBF6
:1004F0000201C5F313044FEA0B3343EA14534FEAE6
:100500000432019C43EA0603A4F10C040294009C0B
:10051000CDE900B400F0F0F803B0BDE8F08F0020A2
:100520000146F9E70EB540F2334102910021CDE9D1
:1005300000110A460B4600F0DFF803B000BD00F0E2
:10054000004230F000400AD0C10D01F56071C0F3E7
:10055000160042EA0151C2084007114370470020CB
:100560000146704701F0004330B421F0004150EAE9
:10057000010206D00A0DA2F56072C1F31301002A30
:1005800002DC30BC00207047440F44EAC104C100C3
:10059000E01830BC00EBC25000F068B830B50B4634
:1005A000014600202022012409E021FA02F59D42A3
:1005B00005D303FA02F5491B04FA02F52844151E77
:1005C000A2F10102F1DC30BD2DE9F05F054600200B
:1005D00092469B4688460646814640241BE02846B4
:1005E00041464746224600F087F953465A46C01A0C
:1005F000914110D311461846224600F016F82D1AE4
:1006000067EB01084F4622460120002100F00DF85B
:1006100017EB00094E41201EA4F10104DFDC48461F
:1006200031462A464346BDE8F09F202A04DB203AA3
:1006300000FA02F1002070479140C2F1200320FA35
:1006400003F3194390407047202A06DBCB17203A6A
:1006500041FA02F043EAE07306E041FA02F3D040C7
:10066000C2F1200291400843194670470029A8BFF3
:100670007047401C490008BF20F00100704710B4CB
:10068000B0FA80FC00FA0CF050EA010404BF10BC80
:10069000704749B1CCF1200421FA04F411FA0CF1AD
:1006A00018BF012121430843A3EB0C01CB1D4FEAE6
:1006B00000614FEA102042BF002010BC704700EBE1
:1006C000C35010440029A4BF10BC7047401C49000F
:1006D00008BF20F0010010BC704710B5141E73F164
:1006E000000408DA401C41F1000192185B411A43F2
:1006F00001D120F0010010BD2DE9F04D92469B463E
:1007000011B1B1FA81F202E0B0FA80F220329046E3
:10071000FFF78BFF04460F4640EA0A0041EA0B014F
:1007200053465A46084313D0114653EA010019D0E4
:10073000C8F14002504600F0DFF805460E4650462C
:1007400059464246FFF771FF084305D0012004E0F7
:1007500020463946BDE8F08D0020054346EAE076A4
:100760002C4337430A986305E40AA0EB08000022F3
:10077000FD0A44EA47540A3002D500200146E9E761
:10078000010510196941DDE9084500196941BDE815
:10079000F04DA2E72DE9F04D81EA030404F0004B8F
:1007A00021F0004514464FF0000A23F0004150EAC2
:1007B000050220D054EA01021DD0C5F30A570246B3
:1007C000C5F31303C1F31300C1F30A5640F48015B7
:1007D00043F48013A7EB0608101BD64608F2FD3839
:1007E00073EB050002D308F1010801E092185B41A8
:1007F000B8F1000F03DA00200146BDE8F08D0020BB
:100800004FF48011064684460EE0171B73EB050774
:1008100005D3121B63EB050306434CEA010C4908A0
:100820004FEA300092185B4150EA0107EDD152EADD
:10083000030012D082EA040083EA0501084305D0D0
:10084000101BAB4106D20122002306E000224FF02C
:10085000004302E06FF0010253101AEB06004CEB6C
:10086000085110EB0A0041EB0B01BDE8F04DFFF71A
:1008700034BFC1F30A52C1F3130140F2FF3341F414
:1008800080119A4202DA00200146704740F2334359
:100890009A42A2F2334202DC524200F02DB8FFF736
:1008A000C4BE000030B5041E71F1000404DB4FF03B
:1008B0000044404264EB0101141E73F1000405DBA7
:1008C0001C464FF00043524263EB0403994208BFB9
:1008D000904230BD064C074D06E0E06840F0010351
:1008E00094E8070098471034AC42F6D3FFF750FC69
:1008F000E05B0008105C0008202A04DB203A21FAA3
:1009000002F00021704721FA02F3D040C2F1200228
:10091000914008431946704700B59BB00121084635
:1009200000F05CFF002019901A90202019900320FD
:100930008DF8680000208DF86B0019A93B4800F085
:1009400095FB0121880500F049FF3C210AA8FFF72B
:10095000B0FC00200A900D9035480B9035480C9063
:100960004FF4006011908000129005200E9000203E
:100970000F904FF4806010908010139040021490FC
:1009800000201590012016900020179018900AA9B9
:10099000294800F02DFB0121274800F01DFB012113
:1009A000080200F02BFF00200690079008900990A5
:1009B00006904FF48030079000200890099006A818
:1009C00000F0A8F818216846FFF773FC002000909B
:1009D0008DF8040001208DF805000020029003909E
:1009E000049001208DF81400694611484C3800F03D
:1009F000BFF80023012205210D484C3800F0E2F831
:100A000001210B484C3800F0A8F8012108484C3867
:100A100000F098F8012106484C3800F06FF80448BF
:100A20004C3800F02BF91BB000BD00000000024064
:100A30004C200140D00400101064024000B58DB07D
:100A40000121202000F0CAFE00200B900C90802095
:100A50000B9003208DF8300000208DF833000BA997
:100A6000244800F003FB0121880200F0C7FE0020AB
:100A70000790089009900A9007904FF480300890F2
:100A8000002009900A9007A800F044F8182101A856
:100A9000FFF70FFC002001908DF8080001208DF871
:100AA0000900002003900490059001208DF81800A3
:100AB00001A9114800F05CF80023012205210E482D
:100AC00000F080F812208DF8000000208DF8010061
:100AD0008DF8020001208DF80300684600F08CFBC1
:100AE0000121054800F00AF8034800F0C7F80DB0EE
:100AF00000BD0000001402400022014021B18268C4
:100B000042F00102826003E0826822F0010282600A
:100B1000704700000021084A1168084A1140D0E9D6
:100B200000231A4383681A43C3681A431143044AD3
:100B3000C2F804137047000004230140E030FCFFBA
:100B40000020014021B1826842F48072826003E09B
:100B5000826822F480728260704721B1826842F418
:100B60000072826003E0826822F400728260704743
:100B700030B50246002000235068104C20400D790B
:100B80000C6844EA05242043506090680C4C2040D7
:100B9000D1E903542C438D682C434D7944EA450434
:100BA00020439060D06A20F470000C7D641EE4B293
:100BB000234340EA0350D06230BD0000FFFEFFFC3B
:100BC000FDF7FFC0F0B504460D4600200021092DB9
:100BD00011DDE068A5F10A0606EB4607072606FACE
:100BE00007F18843A5F10A0606EB460603FA06F16B
:100BF0000843E0600CE0206905EB4507072606FA8C
:100C000007F1884305EB450603FA06F10843206126
:100C1000072A0FDA606B561E06EB86071F2606FAB8
:100C200007F18843561E06EB860605FA06F10843CF
:100C3000606322E00D2A0FDA206BD61F06EB8607D1
:100C40001F2606FA07F18843D61F06EB860605FA2B
:100C500006F10843206310E0E06AA2F10D0606EBFE
:100C600086071F2606FA07F18843A2F10D0606EB58
:100C7000860605FA06F10843E062F0BD816841F09E
:100C800080418160704700001CB50121202000F0E8
:100C9000A5FD4FF48070009001208DF80400002025
:100CA0008DF806008DF805008DF8070069460248AA
:100CB00000F0DCF91CBD000000140240AEB0FFF7EC
:100CC000E3FF502118A8FFF7F4FA502104A8FFF71A
:100CD000F0FA55E02CA9002000F046FE2DA90020D6
:100CE00000F07CFE9DF8B6009DF8B5109DF8B4208C
:100CF0009DF8B230CDE90032CDE902109DF8B13057
:100D00009DF8B3201FA118A801F064FB25480068D6
:100D10003C21B0FBF1F201FB120423480068B0FB58
:100D2000F1F201FB1205214800681821B0FBF1F235
:100D300001FB12069DF8B200CDE901650394009015
:100D40009DF8B1309DF8B3200EA104A801F042FB3C
:100D500004A918A8FFF7BFFA70B901201449086068
:100D60004FF4FA7001F0D4FF00201249C1F8A0023C
:100D70004FF4FA7001F0CCFF4FF47A7001F0C8FF25
:100D8000A8E700003230253032642D253032642D42
:100D90002530326420253032643A253032643A25D9
:100DA000303264002C0000102800001024000010D5
:100DB000A08242420080424253E02A480088302804
:100DC00008D129480068C0432849C1F8B40204206A
:100DD0002449088023480088312802D10120224973
:100DE00008602048008835280BD121480068401C45
:100DF0001F49086004201B49088000F043FA00F0F6
:100E0000ADFB1848008836280BD11A480068401CF2
:100E10001849086004201349088000F033FA00F0F4
:100E20009DFB1048008837280BD113480068401CF0
:100E30001149086004200B49088000F023FA00F0F3
:100E40008DFB08480088382808D10C480068C0434A
:100E50000B49C1F8A002042002490880642001F077
:100E600057FFAAE730000010B4024242000042429D
:100E700024000010280000102C000010A082424224
:100E80000080424210B50024002001F0B7FA04E0CF
:100E9000601CC4B2012001F041FF0D48006808B198
:100EA000642CF5DB642C01DB012010BD002404E080
:100EB000601CC4B2012001F031FF0548006808B988
:100EC000642CF5DB642C01DB0120EEE70020ECE76D
:100ED0002402434210B5002404E0601CC4B2012087
:100EE00001F01CFF0D48006808B1642CF5DB0024FC
:100EF00004E0601CC4B2012001F010FF0748006844
:100F000008B9642CF5DB282001F008FF03480068CD
:100F100008B1012010BD0020FCE70000240243427C
:100F200070B50024002506E06006040EFFF7D2FF2E
:100F30000443681CC5B2082DF6DB204670BD2DE9C0
:100F4000FC4105460E461746984600F02FF8FFF77D
:100F500099FF30BB002405E0FFF7E2FF0DF8040025
:100F6000601CC4B2052CF7DB9DF800009DF8011051
:100F700008449DF8021008449DF8031008449DF8A9
:100F80000410884210D19DF8000030709DF80100D7
:100F900088F800009DF8020028709DF80400387061
:100FA00002E00120BDE8FC810020FBE710B5012034
:100FB00001F024FA002006490860142001F0A8FE80
:100FC00001200449C1F8A4021E2001F0A7FE10BDB3
:100FD000A40243420000434221B1026842F00102F0
:100FE000026003E0026822F0010202607047000024
:100FF00010B500220268134B1A40CC680B682343DB
:101000004C6923438C692343CC6923430C6A2343F3
:101010004C6A23438C6A23434C6B23438C6B2343DE
:101020001A430260426922F00702D1E90B342343DC
:101030001A4342610B6943604B6883608B68C360ED
:1010400010BD00003F801CF00448006800F0010063
:1010500010B101200149086070470000143C0140B4
:101060000149086070470000143C0140F0B50A4691
:1010700000210023002400BF3DE0012505FA01F313
:10108000156805EA03049C4234D105684F00032625
:10109000BE40B543056015794E00B540066835433E
:1010A00005601579012D02D01579022D16D18568BC
:1010B0004F000326BE40B543856055794E00B540CC
:1010C000866835438560456801268E40B543456096
:1010D000456896798E40B6B235434560C5684F0085
:1010E0000326BE40B543C560D5794E00B540C668FD
:1010F0003543C560491C1029BFD3F0BDF0B50023AE
:1011000000244D07ED0E02FA05F3CE1000F1200584
:1011100055F826504E07F70E0F26BE40B543CF10A8
:1011200000F1200646F82750CE1000F1200555F8B2
:10113000265045EA0304CE1000F1200545F826406C
:10114000F0BD42694A40426170470AB1018300E044
:10115000418370471CB50121084600F03FFB012187
:10116000102000F03BFB0120009000208DF80400CF
:101170008DF8070069460548FFF778FF1C200090AE
:1011800069460348FFF772FF1CBD000000000240E3
:10119000001002401CB50121202000F01FFB01219E
:1011A000102000F01BFB4FF4C060009001208DF870
:1011B000040000208DF806008DF805008DF807006A
:1011C00069460B48FFF752FF4FF4C0400090694654
:1011D0000848FFF74BFF01224FF4C0610448FFF7B6
:1011E000B4FF01224FF4C0410248FFF7AEFF1CBD1F
:1011F000001402400010024070B5002100230F22AD
:10120000C4781CB3174C246804F4E064C4F5E064AB
:10121000C4F30721C1F10404E3B20A4144789C40BD
:10122000E1B28478144021430C07210E0E4C05785E
:101230006155047804F01F050124AC4005786D1158
:10124000AD0005F1E025C5F8004109E0047804F09F
:101250001F050124AC40054D0678761145F826405F
:1012600070BD00000CED00E000E400E080E100E073
:1012700002490143024A1160704700000000FA056C
:101280000CED00E070B5002419E004F1B001C8B223
:10129000002100F045F90021084600F041F9002145
:1012A000102000F03DF9002505E00121002000F0AC
:1012B00037F9681CC5B2802DF7DB601CC4B2082C5E
:1012C000E3DB70BD10B500F0EDFB0120484908607C
:1012D000642001F01DFD00204649C1F8A0026420F1
:1012E00001F016FD0120424908600021AE2000F007
:1012F00017F90021022000F013F90021102000F05E
:101300000FF90021402000F00BF90021812000F0AE
:1013100007F90021CF2000F003F90021A12000F0FF
:10132000FFF80021C82000F0FBF80021A62000F003
:10133000F7F80021A82000F0F3F800213F2000F08A
:10134000EFF80021812000F0EBF80021FF2000F0F1
:10135000E7F80021D32000F0E3F80021084600F070
:10136000DFF80021D52000F0DBF80021802000F01C
:10137000D7F80021D92000F0D3F80021F12000F0A7
:10138000CFF80021DA2000F0CBF80021122000F085
:10139000C7F80021DB2000F0C3F80021402000F056
:1013A000BFF80021202000F0BBF80021022000F04F
:1013B000B7F800218D2000F0B3F80021142000F0D0
:1013C000AFF80021A42000F0ABF80021A62000F027
:1013D000A7F80021AF2000F0A3F80021AF2000F013
:1013E0009FF8FFF74FFF0021084600F005F810BDF9
:1013F000A08241420080414270B504460D4605F18D
:10140000B001C8B2002100F08BF8C4F3021141F022
:101410001000002100F084F804F00F00002100F01B
:101420007FF870BD2DE9F04780460E4691461F4675
:1014300000250024A9F12000C5B2B8F17F0F02DD1C
:10144000A046B01CC6B2082F24D131464046FFF753
:10145000D3FF002408E004EB05111A4A505C012177
:1014600000F05EF8601CC4B2082CF4DB701CC1B242
:101470004046FFF7C1FF002409E004EB05110831E5
:10148000104A505C012100F04BF8601CC4B2082CDB
:10149000F3DB15E0062F13D1701CC1B24046FFF7F5
:1014A000ABFF00240AE005EB4501074A02EB4101CE
:1014B000085D012100F034F8601CC4B2062CF2DB98
:1014C000BDE8F0871C510008F44E00082DE9F041FA
:1014D00006460D4617469846069C19E030198028A6
:1014E00009DD082C02D1A81CC5B203E0062C01D1ED
:1014F000681CC5B20026072D01DDBDE8F0813A78F1
:10150000234629463046FFF78DFF7F1C3019C6B2AF
:10151000B8F10000A8F10108E0D100BFEDE700003C
:1015200070B505460C461CB101200A49086002E06E
:10153000002008490860002006490839086028464C
:1015400000F08EFA01200449C1F8B0020149086098
:1015500070BD0000B802424200004242F0B59BB0AC
:1015600019A9002000F000FA1AA9002000F036FAAC
:101570000027502105A8FEF79CFEFFF783FE1D48BB
:1015800000683C21B0FBF1F201FB12041A4800682C
:10159000B0FBF1F201FB1205184800681821B0FBFE
:1015A000F1F201FB12069DF86600CDE90165039496
:1015B00000909DF865309DF8672011A105A800F006
:1015C00009FF0620092316A2002100902220FFF720
:1015D0007DFF05A8FEF778FE04460620234605AAEF
:1015E000032100900020FFF771FF642001F090FBC1
:1015F0001BB0F0BD2C0000102800001024000010CB
:101600003230253032642D253032642D253032645D
:1016100020253032643A253032643A253032640075
:101620007365742D636C6F636B0000002DED068B8A
:101630009AB086E028210CA8FEF73BFE282102A8DC
:10164000FEF737FE16AB17AA18A919A8FFF777FC03
:101650003C49C86CFEF766FF41EC1A0B9FED3A0B54
:1016600053EC102BFEF7ECFE41EC190BFEF77AFF62
:1016700008EE100A9DF8640000EE100AB8EE400A69
:10168000F1EE0C0A00EEC80A10EE104A9DF8600058
:1016900000EE100AB8EE400A10EE100AFEF74FFFF7
:1016A00041EC1A0B9FED2A0B53EC102BFEF7C2FEF8
:1016B00041EC190BFEF756FF05462046FEF73FFFAB
:1016C00041EC190B53EC192B23A10CA800F082FE5E
:1016D0002846FEF734FF41EC190B53EC192B21A1DE
:1016E00002A800F077FE0CA8FEF7EEFD06460820E3
:1016F00033460CAA032100901E20FFF7E7FE02A844
:10170000FEF7E2FD06460820334602AA05210090B6
:101710001E20FFF7DBFE2846FEF711FF41EC190BF8
:101720002046FEF70CFF41EC1A0B8DED009B53ECAD
:101730001A2B0FA000F03EFE4FF47A7001F0E8FA89
:1017400000BF77E7002001406666666666664A3F2E
:10175000F6285C8FC2B53B4074656D3A252E326623
:101760000000000068756D3A252E3266000000000A
:1017700074656D703D252E32665E63202C68756D34
:101780003D252E32665E630D0A00000096B0FFF71D
:1017900099FDFFF777FD20E0502102A8FEF789FDB3
:1017A00001F0BEFB04462046FEF78EFD05462A46A4
:1017B000214602A8FEF764FD02A8FEF785FD054656
:1017C00006202B4602AA032100900020FFF77EFE90
:1017D0004FF47A7001F09CFA00BFDDE729B1064AA8
:1017E00012680243044B1A6004E0034A1268824301
:1017F000014B1A60704700003038024029B1064A98
:1018000012680243044B1A6004E0034A12688243E0
:10181000014B1A607047000044380240F0B50021C7
:1018200000220024022500260223324F3F6807F0E1
:101830000C0121B1042905D0082937D105E02E4F2C
:10184000076036E02D4F076033E02A4F3F1F3F68A7
:10185000C7F38056274F3F1F3F6807F03F036EB125
:10186000264FB7FBF3F7DFF88CC0ACF1040CDCF8C3
:1018700000C0CCF3881C07FB0CF40CE01E4FB7FB38
:10188000F3F7DFF870C0ACF1040CDCF800C0CCF367
:10189000881C07FB0CF4174F3F1F3F68C7F3014735
:1018A0007F1C7D00B4FBF5F7076002E0124F076074
:1018B00000BF00BF0F4F3F6807F0F0010909104F4C
:1018C0007A5C0768D74047600A4F3F6807F4E051E9
:1018D000890A0B4F7A5C4768D7408760054F3F689D
:1018E00007F46041490B064F7A5C4768D740C760F0
:1018F000F0BD0000083802400024F40000127A0015
:101900005400001010B54FF4807000F053F8012817
:1019100005D1000200F01AF803A000F04BFD4FF4CF
:101920000030FFF79DFB10BD414C41524D2041213D
:101930000D0A0000014600BF080900EB80004200CC
:1019400001F00F001044C0B27047000081B241F0B6
:101950008001044A126802F0800262EA0101014A31
:10196000116070470C28004070B506460C460025F3
:101970000E4800680E4900EA0105280CE070C5F326
:101980000420607005F03F00A070C5F34230207065
:101990005EB9E078FFF7CEFFE0706078FFF7CAFF2E
:1019A0006070A078FFF7C6FFA07070BD04280040EB
:1019B0003FFFFF0010B5014600200022054B1B68C9
:1019C000054C03EA040202EA01030BB1012000E026
:1019D000002010BD0C2800407F3F010070B5064676
:1019E0000C4600250F4800680F4900EA0105C5F3C1
:1019F00005402070C5F30620607005F07F00A070E0
:101A000005F48000000CE0705EB92078FFF792FFCB
:101A100020706078FFF78EFF6070A078FFF78AFF74
:101A2000A07070BD002800407F7F7F0010B54FF48C
:101A30008060FFF7BFFF01280AD18002FFF786FF11
:101A40000648006808B9012000E00020034908604A
:101A50004FF48000FFF704FB10BD0000B8024242C3
:101A600070B50546002416E000200C49086080206F
:101A70002041284018B101200949086002E00020F7
:101A800007490860012001F049F901200349086075
:101A900001F044F9641C082CE6DB70BDBC824042B6
:101AA000A88241421CB501210220FFF797FE0121C7
:101AB0000820FFF793FE01211020FFF78FFE4FF45F
:101AC0000040009001208DF8040000208DF80600F1
:101AD0008DF805008DF8070069460A48FFF7C6FA39
:101AE0004FF4A060009069460748FFF7BFFA4FF433
:101AF000A040009069460548FFF7B8FA0020044965
:101B000008601CBD00040240000C024000100240AE
:101B1000BC8240420CB5002001900090344800681F
:101B200040F480303249086000BF3148006800F45A
:101B3000003000900198401C0190009818B901985D
:101B4000B0F5A04FF1D12A48006800F4003010B180
:101B50000120009001E0002000900098012846D16B
:101B600023484030006840F08050214940310860EF
:101B70002048006840F440401E4908601C48083076
:101B800000681B49083108600846006840F40040BE
:101B900008600846006840F4A05008601648091F15
:101BA0000860081F006840F08070091F086000BFCF
:101BB0000F48006800F000700028F9D040F205706E
:101BC0000E4908600A480830006820F00300084900
:101BD000083108600846006840F00200086000BF55
:101BE00003480830006800F00C000828F8D10CBD4C
:101BF000003802400070004008544007003C02409A
:101C000010B500BF502080F31188BFF34F8FBFF392
:101C10006F8F00BF02F048FE18B14FF080500449AA
:101C2000086000BF002080F3118800BF10BD0000D5
:101C300004ED00E010B51548006840F47000134949
:101C400008601348006840F0010011490860002056
:101C50000F49083108600E4800680E4908400C49D9
:101C600008600D48091D0860081F006820F48020E6
:101C7000091F0860002006490C310860FFF74AFF81
:101C80004FF0006001498039086010BD88ED00E028
:101C900000380240FFFFF6FE1030002410B501218D
:101CA000880700F060F8012807D141020348FFF7D8
:101CB00048FA0121880700F053F810BD00140240D3
:101CC00010B50121064800F04EF8012807D1810225
:101CD0000448FFF736FA0121014800F041F810BD31
:101CE000000400400014024010B50121064800F035
:101CF0003AF8012807D141030448FFF722FA0121ED
:101D0000014800F02DF810BD00080040001002400E
:101D100010B50121064800F026F8012807D18103FB
:101D20000448FFF70EFA0121014800F019F810BD30
:101D3000000C00400010024010B50121064800F0E0
:101D400012F8012807D181030448FFF7FAF90121AD
:101D5000014800F005F810BD0010004000100240DE
:101D6000CA430282704730B5024600200023002497
:101D7000158A05EA0103958905EA010413B10CB13E
:101D8000012000E0002030BD98B000201590169092
:101D90001790FFF797FA00BF502101A8FEF789FAC4
:101DA00085E04FF0FF3215A94148006802F014FCAD
:101DB0009DF854103FA0169A00F0FCFA9DF85400CC
:101DC00000283BD1169801280CD1FFF75BFA3F4859
:101DD000006802F037F83E48006802F033F8FFF779
:101DE000BDFB64E01698022812D1FFF74BFA0820D9
:101DF000092338A2002100902220FFF767FB344816
:101E0000006801F035FF3148006802F01BF84EE031
:101E1000169803284BD1FFF735FA0620092330A284
:101E2000002100902220FFF751FB2848006801F0B4
:101E30001FFF2748006802F005F838E09DF85400BD
:101E4000012834D12148006801F0FCFF20480068D7
:101E500001F0F8FF0620092324A20021009022208F
:101E6000FFF734FB179848B923480068401C224903
:101E70000860FFF707FAFFF771FB18E017980128D1
:101E800009D11E480068401C1C490860FFF7FAF998
:101E9000FFF764FB0BE01798022808D11848006888
:101EA000401C17490860FFF7EDF9FFF757FB78E78B
:101EB0001C00001051756575655479706525642C9A
:101EC000446174613D25640A0000000008000010B0
:101ED0000C00001074656D702D73686F7700000042
:101EE00074696D652D73686F77000000616C6172B5
:101EF0006D2D73686F77000024000010280000101B
:101F00002C0000100EB5FFF725F9012400208DF8F4
:101F1000000073E03A480068C8B900208DF800005E
:101F2000142000F0F5FE3648006880B9641C032CCC
:101F300000DD0124019400235A1E694631480068DF
:101F400002F05CFA00BF2E4800680028FBD02E4843
:101F50000068B0B901208DF80000142000F0D8FE10
:101F60002948006868B9002002900023421E694693
:101F70002448006802F042FA00BF234800680028A5
:101F8000FBD02148001D0068C0B901208DF8000079
:101F9000142000F0BDFE1C48001D006870B901202F
:101FA00002900023821E69461648006802F026FA55
:101FB00000BF1548001D00680028FAD012480830FC
:101FC0000068C0B901208DF80000142000F0A0FEC8
:101FD0000D480830006870B9022002900023C21E2C
:101FE00069460848006802F009FA00BF0648083050
:101FF00000680028FAD00A2001F09EFD8AE7000060
:10200000000240421C00001008024242FEF784FC1D
:10201000FEF714FD65E03348006800F00200002878
:102020005FD030484C300068A0F266304FF47A71CF
:10203000484340F67231B0FBF1F0C0F57A702A499E
:1020400048632A48D0F84C02B0F5966F01D90120B8
:1020500000E0002023494C310968B1F5FA6F01D83E
:10206000012100E00021084038B10020204908602B
:1020700001202049C1F8A8022FE01A484C3000681E
:10208000B0F5FA6F01D9012000E0002015494C316C
:10209000096840F6C412914201D8012100E00021F4
:1020A000084030B10020124908601249C1F8A80266
:1020B00013E00C484C30006840F6C411884206D941
:1020C00000200B4908600B49C1F8A80205E0012077
:1020D000074908600749C1F8A8024FF4FA7000F0F8
:1020E00017FE98E700220140002000400020014038
:1020F000A48242420080424210B588B004460121C9
:102100000846FFF76BFB4FF4C060069002208DF885
:102110001C0000208DF81E008DF81D008DF81F009A
:1021200006A91E48FEF7A2FF072209211B48FEF759
:10213000E5FF07220A211948FEF7E0FF01211020E0
:10214000FFF75CFB02940020ADF80C00ADF80E0028
:10215000ADF81000ADF814000C20ADF8120002A983
:102160000F4800F0B7F8012240F225510C4800F06A
:102170008CF825208DF8040005208DF8050000203E
:102180008DF8060001208DF8070001A8FFF734F84C
:102190000121034800F043F808B010BD00000240E0
:1021A0000010014010B540F22551074800F043F8F7
:1021B00048B140F22551044800F022F8024800F0EE
:1021C000F3F80249088010BD0010014030000010F3
:1021D0000848008800F0200058B10648001D00881B
:1021E0000549064A1268885404480068401C03499F
:1021F0000860704700480040D0020010380000100E
:1022000010B50022002340F66A14A14200D100BF9D
:102210000A1201249440A3B2DC43048010BD21B112
:10222000828942F40052828104E082894DF6FF7374
:102230001A408281704770B50246002400230025B1
:10224000002040F66A16B14200D100BFC1F342152A
:1022500001F01F03012606FA03F3012D02D196892E
:10226000334006E0022D02D1168A334001E0968AFF
:1022700033400C12012606FA04F41688344013B1D8
:102280000CB1012000E0002070BDF0B50346002431
:1022900000260025002040F66A17B94200D100BF91
:1022A0001846C1F3421401F01F06012707FA06F58C
:1022B000012C01D10C3004E0022C01D1103000E0DF
:1022C00014301AB107682F43076002E00768AF4374
:1022D0000760F0BD2DE9FF4705460E460024A146E4
:1022E00000BFA046B08900B100BF2C8A24F440543E
:1022F000F08804432C82AC8941F20C608443B0889E
:1023000031890843718908430443AC81AC8A24F4C1
:102310004074B0890443AC826846FFF77FFA2048D6
:10232000854202D01F48854202D1DDF80C9001E0C1
:10233000DDF80890A88900F4004040B109EBC9001D
:1023400000EB091031684900B0FBF1F707E009EB39
:10235000C90000EB091031688900B0FBF1F7642077
:10236000B7FBF0F004012009642101FB1078A88973
:1023700000F4004040B1322000EBC800B0FBF1F0A7
:1023800000F00700044308E0322000EB081064214D
:10239000B0FBF1F000F00F0004432C81BDE8FF8793
:1023A000001001400014014001468888C0F3080075
:1023B000704700000FB4054B10B503A9044A0298FA
:1023C00000F00AF910BC5DF814FB0000712D000844
:1023D000CC0000100FB4084B10B504A902AA039852
:1023E00000F0FAF8044602A9002000F08CFC204618
:1023F00010BC5DF814FB0000072D00081CB5044656
:1024000001214020FFF7EAF94FF4007000908DF8A9
:10241000044000208DF8060002208DF80500002001
:102420008DF8070069460248FEF720FE1CBD00003B
:102430000018024002E008C8121F08C1002AFAD1A1
:1024400070477047002001E001C1121F002AFBD134
:10245000704700002DE9FF5F82B00021DDE9043004
:10246000020DDDF840B0034318D044F61050A2F23C
:10247000FF3242431514119801281FD0A5EB0B0021
:10248000401C5FEA000A4FF000064E4FDFF838911B
:10249000B046504615D5CAF1000413E01198012446
:1024A0004AA3012801D16FEA0B010298119AC0E9F1
:1024B0000031C0E9024206B0BDE8F09FCBF1000058
:1024C000DFE704460021404A491842EB0450CDE9B9
:1024D000001012E0E00707D032463B46404649462E
:1024E000FDF7AEFF8046894632463B461046194608
:1024F000FDF7A6FF06460F466410002CEAD1DDE981
:102500000401DDE90023BAF1000F06DAFDF798FFB8
:1025100042464B46FDF794FF05E0FEF73BF9424685
:102520004B46FEF737F904460E460022284BFEF7CD
:10253000B9F903D84FF0FF30014607E00022254BE0
:1025400020463146FDF7D5FEFEF793F9102409E049
:10255000002C0ADB0A220023FEF736F8039B3032F8
:102560001A55641E50EA0102F2D1641C039AC4F1A8
:1025700011031444119A012A03D0012208430DD1FA
:102580000AE0084304D000204FF0110B119072E7CD
:10259000A3EB0B056D1E0DE05B4504DD4FF0000263
:1025A00005F1010504E003DA4FF00002A5F1010591
:1025B000002AECD002981199C0E90231C0E9004527
:1025C00079E70000000014400000F03F30000000F8
:1025D0000000F0430000E03F2DE9FF4F95B09B461F
:1025E0008946064600250FE2252877D10024274694
:1025F000F84A0121059400E0044316F8013F203B0E
:1026000001FA03F01042F7D130782A2811D06FF088
:102610002F033078A0F13002092A16D8059A44F029
:10262000020402EB820203EB42021044761C059086
:10263000EFE759F8042B0592002A03DA504244F4DC
:102640000054059044F00204761C30782E2816D1F0
:1026500016F8010F44F004042A280DD06FF02F0261
:102660003078A0F13003092B09D807EB870302EB80
:102670004303C718761CF3E759F8047B761C3078BF
:102680006C280FD006DC4C2817D068280DD06A289B
:1026900014D104E0742810D07A280FD10DE044F44E
:1026A00000140AE044F4801401E044F44014727809
:1026B000824202D104F58014761C761C307866289C
:1026C0000BD013DC582877D009DC002875D04528BA
:1026D000F6D04628F4D047281AD19DE118E06328A7
:1026E00035D0642879D0652812D195E1702873D04F
:1026F00008DC6728F1D069286FD06E280DD06F28CC
:1027000006D1B5E073282CD0752875D0782874D000
:102710005A46179990476D1C75E1C4F30250022880
:1027200009D003280DD0D9F8001004280DD00D6071
:1027300009F1040967E1D9F80010EA17C1E900526C
:10274000F6E7D9F800100D80F2E70D70F0E719F800
:10275000041B8DF8001000208DF80100EA460120CE
:1027600003E059F804AB4FF0FF3061074FF0000170
:1027700002D40DE008F101018846B9420FDA804524
:10278000F8DB1AF808100029F4D108E008F101017B
:1027900088468142FADB1AF808100029F6D105981C
:1027A0005B46A0EB080721463846179A00F094FADA
:1027B000284400EB080507E04DE029E10DE01AF898
:1027C000010B5A4617999047B8F10108F7D25B46BA
:1027D00021463846179A13E142E00A220092C4F3D8
:1027E00002524FF0000A022A08D059F804CB032AFB
:1027F0004FEAEC710AD00DE029E02AE009F1070167
:1028000021F00702F2E802C1914609E00FFA8CFCC0
:102810004FEAEC71042A03D14FFA8CFC4FEAEC71B9
:10282000002907DA0A460021DCF1000C61EB020105
:102830002D2202E0220504D52B228DF8042001224E
:1028400003E0E20701D02022F7E7904659E00A2191
:1028500002E010220DE010214FF0000A00910BE081
:1028600010224FF0000A44F004040827009203E00D
:1028700008224FF0000A0092C4F30252022A05D047
:1028800059F804CB0021032A08D009E009F1070117
:1028900021F00702F2E802C1914605E01FFA8CFC24
:1028A000042A01D10CF0FF0C4FF00008220728D5B4
:1028B000702806D0009B83F0100353EA0A0305D06A
:1028C0000EE040228DF80420012208E05CEA0102BB
:1028D00006D030228DF804208DF8050002229046A3
:1028E000009B83F0080353EA0A030AD15CEA010261
:1028F00001D1620705D530228DF804204FF0010880
:102900007F1E582804D034A003900EA802900DE03A
:1029100036A0F9E753466046009AFDF755FE844617
:102920000398825C0298401E029002705CEA0100EB
:10293000F0D1029806A9081A00F1200A600702D512
:1029400024F4803400E00127574502DDA7EB0A009C
:1029500000E0002000EB0A01009005984144401A75
:102960000590E00306D45B462146179A059800F0CF
:10297000B3F90544002706E001A85A46C05D17993F
:1029800090476D1C7F1C4745F6DBE0030CD55B468A
:102990002146179A059800F09FF9054404E030207D
:1029A0005A46179990476D1C0099481E00900029BF
:1029B000F5DC08E0029802995A460078491C029119
:1029C000179990476D1CBAF10001AAF1010AF1DCD8
:1029D00065E10000092801003031323334353637E3
:1029E000383961626364656600000000303132335B
:1029F00034353637383941424344454600000000FB
:102A000000F058F90544761C307800287FF4ECADCE
:102A100019B02846BDE8F08F620700D4062709F1F7
:102A2000070222F0070CFCE80223E14603F000480D
:102A30005FEA080C02D00FF2702C0DE05FEA045C34
:102A400002D50FF2682C07E05FEAC47C02D00FF2D7
:102A5000602C01E0AFF2700C4FF0FF3823F0004320
:102A6000CDF850C065280CD006DC452809D0462892
:102A70001DD047283DD13DE0662818D067287ED17B
:102A800038E00021112F01DB112000E0781CCDE996
:102A9000000106A90EA8FFF7DDFCDDE90F010E9A83
:102AA00003910021009207F1010A04914DE04FF0DB
:102AB00000400097CDE9011006A90EA8FFF7CAFC57
:102AC000DDE90F0203920E9B11990022DDF80CA0A4
:102AD0000093049211B9791C00EB010AB7EB0A00CC
:102AE00004D4C0F1FF3007F1010A0490AAEB0700FB
:102AF000019044E0012F00DA01270021112F01DDB0
:102B0000112000E03846CDE9000106A90EA8FFF724
:102B1000A1FCDDE90F010E9A0391002104910092BE
:102B2000BA4621070CD40399514500DA8A46BAF116
:102B3000010F05DD009AAAF10101515C302908D08E
:102B4000B84202DA10F1040F06DA0121CDE90110D2
:102B500015E0AAF10101E9E7002805DC0499014428
:102B60000491AAEB000102E0411C514500DD8A46B8
:102B70000499401A401C01904FF000400290200739
:102B800004D40198504501DBCDF8048000208DF875
:102B90004F0002980DF14F07B0F1004F25D02B20C8
:102BA0000E9002984FF0020800280CDA4042029082
:102BB0002D200E9007E00A210298FDF7EFFC30313E
:102BC000029007F8011DB8F10001A8F10108F2DC3C
:102BD00002980028EFD1791E0E980870307800F026
:102BE000200040F0450007F8020D12A8C01B00F1BC
:102BF00007081498007800B1012000EB0A01019841
:102C000001EBE07105984144401A401E0590E00335
:102C100006D45B462146179A059800F05DF80544F6
:102C20001498007818B15A46179990476D1CE00324
:102C300024D55B462146179A059800F04DF80544C7
:102C40001CE00498002807DBDDE90301884203DD6E
:102C50000098405C179901E0179930205A46904738
:102C6000049805F10105401C04900198401E019054
:102C700004D12E205A46179990476D1CBAF10001D5
:102C8000AAF1010ADDDC05E017F8010B5A46179995
:102C900090476D1CB8F10001A8F10108F4DC5B4617
:102CA0002146179A0598ABE62D0000002B00000086
:102CB000200000002DE9F041044600251E4617467D
:102CC000880404D405E039462020B0476D1C641EFA
:102CD000F9D52846BDE8F0812DE9F04104460025EC
:102CE0001E469046C80301D5302700E020278804FF
:102CF00004D505E041463846B0476D1C641EF9D541
:102D00002846BDE8F0810A68531C0B6010707047BC
:102D100010B50446204600F00FFF10BDF0B5034685
:102D200000224FF0E02675690F4E36680F4FB6FB54
:102D3000F7F606FB03F44FF0E026B16910E04FF020
:102D4000E026B06988420BD0884202D20E1A324483
:102D500002E02E1A0E4432440146A24200D300E0A3
:102D6000EDE700BFF0BD00004000001040420F0042
:102D700002464FF6BF70064B1880D0B2988000BF55
:102D80000348008800F040000028F9D00020704778
:102D9000001001401CB54FF44070FEF769FAFEF7D1
:102DA000F9F94FF4E130FFF7A7F9FDF7B5FD32A0CF
:102DB000FFF700FB00220C210A2001F039FA31490B
:102DC00008600846006810B92FA0FFF7F3FA3248F0
:102DD0000A2100238022CDE9001030A1324801F001
:102DE0002FFD32480A2100238022CDE9001030A1B6
:102DF000314801F025FD31480A2100234FF480724B
:102E0000CDE900102EA1304801F01AFD2F480A210B
:102E100000238022CDE900102DA1304801F010FDE3
:102E20002F480A2100234FF48072CDE900102DA114
:102E3000304801F005FD30480C2100238022CDE907
:102E400000102EA1304801F0FBFC30480C2100237B
:102E50008022CDE900102EA1304801F0F1FC174886
:102E6000006800F0EFFF1948006800F0EBFF00F089
:102E700081FF00201CBD0000D4CBB6AFCAD6BBB7C3
:102E80000D0A00001C000010B4B4BDA8B6D3C1D018
:102E9000CAA7B0DC0D0A0000000000105461736B7B
:102EA0004F4C454400000000891D0008040000103C
:102EB0005461736B4B455900051F00080800001052
:102EC0005461736B525443008D1700080C000010BE
:102ED0005461736B44485431310000002D160008D2
:102EE000100000105461736B42656570434C4F4392
:102EF0004B000000BD0C0008140000105475726EE9
:102F00005F6C6564000000000D20000818000010D0
:102F1000426C7565546F6F7468000000B90D00084D
:102F200010B59AB0502104A8FDF7C3F9002418A9E0
:102F30000020FEF719FD19A90020FEF74FFD9DF8AE
:102F400066009DF865109DF864209DF86230CDE91B
:102F50000032CDE902109DF861309DF8632005A193
:102F600004A8FFF737FA04A90AA0FFF723FA04A878
:102F70001AB010BD3230253032642D253032642D28
:102F80002530326420253032643A253032643A25C7
:102F90003032640025730A002DE9F04105460E46E3
:102FA0002648076826480068001D00F073FC50B9E9
:102FB0002348006890F82C100120884021490968B6
:102FC000814320480160681CD8B9D6B11E494868C1
:102FD0001B49096888601A4982680968CA601849EB
:102FE0000968091D8268516015490968091D8160D9
:102FF000154A134909684A6111460968491C11605C
:103000001AE07C190E4800684460BC4207D20C48A4
:103010000168091D0D48006800F060FC0CE00848DC
:103020000168091D0A48006800F058FC094800685A
:10303000844201D207480460BDE8F081A00000107E
:103040008C000010A4000010AC07001094000010C9
:1030500090000010BC00001010B5044600F064FCA5
:1030600031480068401C304908603048006840B969
:103070002E4804600846006801280DD100F0D2F9FE
:103080000AE02B48006838B928480068C06AE16A3D
:10309000884201D82548046026480068401C25491C
:1030A000086008460068606594F82C10012088408C
:1030B00021490968084320490860E16A01EB810160
:1030C0001E4A02EB81014868A0608268E260211D0F
:1030D000826851608160E16A01EB8101174A02EB6D
:1030E00081026261E16A01EB8101144A52F8211008
:1030F000491CE26A02EB8202104B43F8221000F0F6
:103100005DFC0B48006868B108480068C06AE16A65
:10311000884207D24FF0805009490860BFF34F8FB3
:10312000BFF36F8F10BD00009C0000108C000010DA
:10313000A8000010B8000010A4000010DC0400106B
:1031400004ED00E010B516E000F0EEFB0C48C0689E
:10315000C468201D00F09EFB0A480068401E094913
:10316000086009480068401E0749086000F026FC16
:10317000204600F05FF8044800680028E4D110BD44
:10318000980700109C0000109800001070B50446CD
:103190000D46206C70B1216CE0680144E160D4E917
:1031A0000210884201D32168E1602846226CE16860
:1031B000FDF766F870BD2DE9F04104460F4615464F
:1031C0004FF00008A66B206C48B9206800282CD16D
:1031D000A06801F067FC80460020A06025E07DB972
:1031E0003946226C6068FDF74BF8216C6068084432
:1031F0006060D4E90101884217D32068606014E060
:103200003946226CE068FDF73BF8216CE068411A12
:10321000E1602168E068884203D2216CA068411A0D
:10322000E160022D01D106B1761E701CA0634046FC
:10323000BDE8F08110B50446206B00F0FDFB204690
:1032400000F0FAFB10BD000030B54FF4963315487E
:1032500000F007042CB1C01D20F00700114C041B26
:103260001B1B0246104C226000240F4D6C60D018CE
:10327000083820F007000D4C206000240B4D2D680D
:103280006C600A4D2D682C601146441A4C60074C46
:1032900024680C60064D4C682C60064D4C682C6010
:1032A00030BD000000000020640000106C00001021
:1032B000740000107000001000BFFFF743FF0648C5
:1032C00000680128F9D94FF0805004490860BFF325
:1032D0004F8FBFF36F8FF0E7DC04001004ED00E0C8
:1032E0002DE9F04106460D4617469846069C0DB955
:1032F000246000E02760E66325640121204600F099
:10330000E9FF84F84C80BDE8F08100002DE9F05F12
:1033100082460F4690469B460A9E0C9C4FEA8801C7
:10332000A522206BFCF7BEFFA8F10100216B01EB89
:10333000800929F0070909F0070008B9012000E019
:10334000002088B940F25D332A4A2BA131A0FFF753
:1033500031F800BF502080F31188BFF34F8FBFF3C7
:103360006F8F00BF00BFFEE77FB1002507E0795DEA
:1033700004F134004155785D00B902E06D1C202D48
:10338000F5D300BF002153200155202E01D201208A
:1033900000E0002088B940F29233164A16A11DA021
:1033A000FFF708F800BF502080F31188BFF34F8F5C
:1033B000BFF36F8F00BF00BFFEE7202E00D31F2694
:1033C000E662E665201D00F086FA04F1180000F0C0
:1033D00082FA2461C6F12000A06164625A46514617
:1033E000484600F041FA20600B9808B10B98046041
:1033F000BDE8F09F6B5900082E2E5C467265655241
:10340000544F535F536F757263655C7461736B7374
:103410002E6300004572723A2573202573202564BF
:103420000D0A000010B5002407E004EB84010F4AE8
:1034300002EB810000F042FA641C202CF5D30C480A
:1034400000F03CFA0B4800F039FA0B4800F036FA6D
:103450000A4800F033FA0A4800F030FA04480949F3
:10346000086004480849086010BD0000DC04001032
:103470005C07001070070010840700109807001008
:10348000AC070010900000109400001010B5014629
:10349000164800E0006803688B42FBD3024643688D
:1034A00013448B4204D143684C6823444360014673
:1034B0000A464B6813440468A34211D10C4C0368BC
:1034C0002468A34208D04B680468646823444B60B6
:1034D00003681B680B6005E0054B1B680B6001E08F
:1034E00003680B60884200D0016010BD64000010CA
:1034F0006C00001070B5054600F016FAA86B08B90C
:10350000012400E0002400F059FA204670BD70B597
:10351000054600F009FAA86BE96B884201D1012445
:1035200000E0002400F04AFA204670BD0948006817
:10353000006808B9012000E0002020B14FF0FF3002
:103540000549086005E003480068C0680068024952
:103550000860704790000010BC000010114800681F
:10356000401C08B9012000E0002080B9EC230E4A7D
:103570000EA115A0FEF71EFF00BF502080F311889A
:10358000BFF34F8FBFF36F8F00BF00BFFEE700BFD9
:10359000502080F31188BFF34F8FBFF36F8F00BFB0
:1035A00000BFFEE780000010235700082E2E5C4667
:1035B00072656552544F535F536F757263655C70EB
:1035C0006F72742E630000004572723A25732025D5
:1035D000732025640D0A000070B5054600262C46B0
:1035E0008DB940F2FC63144A14A11BA0FEF7E2FE61
:1035F00000BF502080F31188BFF34F8FBFF36F8F50
:1036000000BF00BFFEE718496069884201D1012070
:1036100000E0002070B11549A06A884201D1012064
:1036200000E0002030B9A06A08B9012000E00020C5
:1036300000B10126304670BDD35900082E2E5C46DD
:1036400072656552544F535F536F757263655C7456
:1036500061736B732E6300004572723A25732025E7
:10366000732025640D0A0000AC07001084070010C9
:1036700070B5044600F058F994F9455010E0606ABE
:1036800008B9012000E0002038B904F1240001F05D
:10369000A7FA18B100F0AAFA00E003E0681E45B2EC
:1036A000002DECDC00BFFF2084F8450000F086F917
:1036B00000F03AF994F9445010E0206908B901206B
:1036C00000E0002048B904F1100001F089FA08B1C7
:1036D00000F08CFA681E45B200E001E0002DECDC41
:1036E00000BFFF2084F8440000F068F970BD0000BE
:1036F0002DE9F04705464FF0000900F043FC49482A
:10370000006808B9FFF7A0FD75B105F00700C0F12A
:103710001008C8F1FF30A84201D2012000E00020CB
:1037200008B9454400E00025012000EBE5700028C1
:1037300059D0002D57D03C480068854253D83B4EA5
:103740003046046801E0264624686068A84202D238
:1037500020680028F7D133480068844243D030689D
:1037600000F10809206830606068401B10281FD9EC
:10377000671907F0070008B9012000E0002080B9B0
:10378000DD232B4A2BA132A0FEF714FE00BF5020F0
:1037900080F31188BFF34F8FBFF36F8F00BF00BF5F
:1037A000FEE76068401B786065603846FFF76EFE94
:1037B0001D4960680968081A1B49086008460068C6
:1037C00027490968884203D21748006824490860DD
:1037D000606840F000406060002020602148006880
:1037E000401C2049086001F0ABFA09F0070008B955
:1037F000012000E0002088B940F21D130C4A0DA101
:1038000013A0FEF7D7FD00BF502080F31188BFF34F
:103810004F8FBFF36F8F00BF00BFFEE74846BDE884
:10382000F08700006C0000107000001064000010B1
:103830000C5700082E2E5C4672656552544F535F3C
:10384000536F757263655C686561705F342E6300E9
:103850004572723A25732025732025640D0A0000F5
:103860007400001078000010001F4FF08073036098
:10387000001F21F001030360001F054B0360143893
:103880000260001F6FF002030360203870470000E1
:103890005D35000801460A69D1E901309860D1E937
:1038A000010358605068884201D188685060002048
:1038B00008611068401E10601068704700F1080130
:1038C00041604FF0FF31816000F10801C16001618A
:1038D00000210160704700210161704710B5024668
:1038E0000B685C1C0CB9106907E002F1080000E0ED
:1038F0004068446824689C42FAD944684C604C682B
:10390000A160886041600A611468641C146010BD85
:1039100042684A6093688B6093685960916008615F
:1039200003685B1C0360704710B500BF502080F334
:103930001188BFF34F8FBFF36F8F00BF114800682E
:10394000401C1049086008460068012819D10E483B
:103950000068C0B208B9012000E0002088B940F238
:10396000B9130A4A0AA111A0FEF724FD00BF502096
:1039700080F31188BFF34F8FBFF36F8F00BF00BF7D
:10398000FEE710BD8000001004ED00E05A5700086B
:103990002E2E5C4672656552544F535F536F75729D
:1039A00063655C706F72742E630000004572723A3A
:1039B00025732025732025640D0A000010B51148D9
:1039C000006888B94FF4E0730F4A10A116A0FEF703
:1039D000F1FC00BF502080F31188BFF34F8FBFF37D
:1039E0006F8F00BF00BFFEE706480068401E054914
:1039F00008600846006820B9002080F3118800BFE5
:103A000000BF10BD800000106D5700082E2E5C46D0
:103A100072656552544F535F536F757263655C7086
:103A20006F72742E630000004572723A2573202570
:103A3000732025640D0A000070B506463546002E39
:103A400049D0083D2C466068C00F88B94FF4987380
:103A5000214A22A128A0FEF7ADFC00BF502080F330
:103A60001188BFF34F8FBFF36F8F00BF00BFFEE71A
:103A7000206808B9012000E0002088B940F2311325
:103A8000154A16A11CA0FEF795FC00BF502080F33C
:103A90001188BFF34F8FBFF36F8F00BF00BFFEE7EA
:103AA0006068C00FB8B12068A8B9606820F0004015
:103AB000606000F067FA14496068096808441249B8
:103AC00008602046FFF7E2FC10480068401C0F49E0
:103AD000086001F035F970BD195700082E2E5C46BC
:103AE00072656552544F535F536F757263655C68BE
:103AF0006561705F342E63004572723A257320252C
:103B0000732025640D0A0000700000107C00001076
:103B100000204FF0E02108618861064800684FF4FA
:103B20007A71B0FBF1F0401E4FF0E02148610720B0
:103B3000086170474000001070B504460025002C55
:103B400021D01648006808B9012000E0002088B99B
:103B500040F21C53124A13A119A0FEF72BFC00BF20
:103B6000502080F31188BFF34F8FBFF36F8F00BFDA
:103B700000BFFEE700F006FA00212046FFF70CFA2E
:103B800001F0DEF805463DB94FF08050104908605D
:103B9000BFF34F8FBFF36F8F70BD0000C8000010E0
:103BA0009C5900082E2E5C4672656552544F535F37
:103BB000536F757263655C7461736B732E63000081
:103BC0004572723A25732025732025640D0A000082
:103BD00004ED00E003490968016003490968416098
:103BE00070470000B4000010A0000010012001493F
:103BF00008607047B000001070B504460D468CB9DF
:103C000040F60E430D4A0EA114A0FEF7D3FB00BFF1
:103C1000502080F31188BFF34F8FBFF36F8F00BF29
:103C200000BFFEE71148016818312046FFF756FE35
:103C300001212846FFF7B0F970BD0000725A000854
:103C40002E2E5C4672656552544F535F536F7572EA
:103C500063655C7461736B732E6300004572723A26
:103C600025732025732025640D0A00008C000010A8
:103C700070B505462C468DB940F226732D4A2EA10B
:103C800034A0FEF797FB00BF502080F31188BFF3EC
:103C90004F8FBFF36F8F00BF00BFFEE73148006852
:103CA000844245D0002C43D0FFF73EFE2046FFF76C
:103CB00093FCD8B3201DFFF7EDFD94F82C100120E4
:103CC000884029490968084327490860E16A01EBEF
:103CD0008101264A02EB81014868A0608268E260A7
:103CE000211D826851608160E16A01EB81011F4AF8
:103CF00002EB81026261E16A01EB81011B4A52F829
:103D00002110491CE26A02EB8202184B43F8221090
:103D10001449E06A0968C96A884207D34FF08050A5
:103D200013490860BFF34F8FBFF36F8FFFF746FE55
:103D300070BD0000EA5900082E2E5C46726565527F
:103D4000544F535F536F757263655C7461736B732B
:103D50002E6300004572723A257320257320256476
:103D60000D0A00008C000010A4000010DC040010FC
:103D700004ED00E01CB51F4800210B468222CDE96E
:103D800000101DA11E4800F05BFD0446012C15D15A
:103D900000BF502080F31188BFF34F8FBFF36F8FA8
:103DA00000BF4FF0FF301749086001201649086036
:103DB00000201649086000F053F917E0601C08B1B4
:103DC000012000E0002088B940F61203104A11A13A
:103DD00017A0FEF7EFFA00BF502080F31188BFF361
:103DE0004F8FBFF36F8F00BF00BFFEE7144800681E
:103DF0001CBD0000C000001049444C4500000000FC
:103E0000B9320008BC000010A8000010A00000108B
:103E1000095A00082E2E5C4672656552544F535F56
:103E2000536F757263655C7461736B732E6300000E
:103E30004572723A25732025732025640D0A00000F
:103E4000C400001070B50546FFF76EFD15B939487E
:103E5000006800E028460446201DFFF71BFD78B9E6
:103E6000E06A00EB8000344951F8200040B994F832
:103E70002C10012088403149096881432F48016096
:103E8000A06A18B104F11800FFF704FD211D2C48A9
:103E9000FFF73EFD002009E004F16801095C0129FB
:103EA00003D1002204F168010A54401C0128F3DB0D
:103EB000FFF784FD2348006828B1FFF735FDFFF7C1
:103EC00035FBFFF77BFD1B480068844230D11D485D
:103ED000006808B31C48006808B9012000E0002011
:103EE00088B940F2D263194A19A120A0FEF762FAFC
:103EF00000BF502080F31188BFF34F8FBFF36F8F47
:103F000000BF00BFFEE74FF080501C490860BFF3C0
:103F10004F8FBFF36F8F0BE009480068184909689D
:103F2000884203D100200349086001E000F032F824
:103F300070BD00008C000010DC040010A400001014
:103F4000AC070010A8000010C8000010C6590008F7
:103F50002E2E5C4672656552544F535F536F7572D7
:103F600063655C7461736B732E6300004572723A13
:103F700025732025732025640D0A000004ED00E060
:103F80009C00001002480068401C0149086070470E
:103F9000C800001010B52148006818B10120204960
:103FA000086039E000201E4908601E480068B0FA29
:103FB00080F0C0F11F0404EB84001B4951F820007D
:103FC00008B1012000E0002088B940F6F633174A16
:103FD00017A11EA0FEF7EEF900BF502080F3118854
:103FE000BFF34F8FBFF36F8F00BF00BFFEE704EB3F
:103FF00084010D4A02EB810041684968416000F18B
:10400000080142688A4202D14168496841604168BA
:10401000C968124A116000BF10BD0000C80000103E
:10402000B0000010A4000010DC0400105F5A00086B
:104030002E2E5C4672656552544F535F536F7572F6
:1040400063655C7461736B732E6300004572723A32
:1040500025732025732025640D0A00008C000010B4
:104060001CB5604800686049884201D0012000E02A
:10407000002088B94FF4A3735C4A5DA163A0FEF7EA
:1040800099F900BF502080F31188BFF34F8FBFF321
:104090006F8F00BF00BFFEE7524800685249491EBB
:1040A000884201D0012000E0002088B940F2471387
:1040B0004E4A4FA155A0FEF77DF900BF502080F376
:1040C0001188BFF34F8FBFF36F8F00BF00BFFEE7B4
:1040D000524C204600780190FF2021460870084687
:1040E000007800909DF8000000F0F0009DF80010AE
:1040F000884201D1012000E0002088B94FF4B0735C
:104100003A4A3BA141A0FEF755F900BF502080F389
:104110001188BFF34F8FBFF36F8F00BF00BFFEE763
:104120009DF8000000F050003D49087007203D490F
:10413000086009E03B480068401E3A4908609DF865
:1041400000004006000E00909DF8000000F0800086
:104150008028EFD033480068C0F10700042801D15F
:10416000012000E0002088B940F27D131F4A20A101
:1041700026A0FEF71FF900BF502080F31188BFF37F
:104180004F8FBFF36F8F00BF00BFFEE72548006869
:104190000002244908600846008800F4E0600860D6
:1041A0001E49019808700F482030006840F47000E4
:1041B0000C49203108600846006840F070400860F3
:1041C000FFF7A6FC002018490860FCF70BF8174819
:1041D000006840F0404015490860FBF7EFFF002001
:1041E0001CBD000000ED00E071C20F413457000813
:1041F0002E2E5C4672656552544F535F536F757235
:1042000063655C706F72742E630000004572723AD1
:1042100025732025732025640D0A000000E400E0CA
:1042200084000010880000108000001034EF00E0CF
:104230002DE9F84305460E4617460024E5B1601EF9
:10424000B0FBF5F0B04217D305FB06F010F1510FAB
:1042500012D805FB06F808F15000FFF749FA0446AA
:10426000ECB1A14609F150093B464A463146284681
:104270000094FFF735F812E08CB94FF4F273094A55
:1042800009A110A0FEF796F800BF502080F3118816
:10429000BFF34F8FBFF36F8F00BF00BFFEE7204615
:1042A000BDE8F883B15700082E2E5C467265655252
:1042B000544F535F536F757263655C7175657565B7
:1042C0002E6300004572723A257320257320256401
:1042D0000D0A00002DE9F04105460E4601272C4647
:1042E0008CB94FF49773384A38A13FA0FEF762F8B3
:1042F00000BF502080F31188BFF34F8FBFF36F8F43
:1043000000BF00BFFEE7002C42D0E06B00283FD08A
:104310004FF0FF31E06BB1FBF0F0216C884237D3F6
:10432000FFF702FBD4E90F12206801FB0200A06036
:104330000020A06320686060E06B401E226C216852
:1043400000FB0211E160FF2084F8440084F845007E
:104350009EB9206908B9012000E00020A8B904F145
:10436000100000F03DFC80B14FF080502249086001
:10437000BFF34F8FBFF36F8F07E004F11000FFF71B
:104380009DFA04F12400FFF799FAFFF717FB00E00C
:1043900000270FB1012000E0002088B940F263132C
:1043A000094A0AA110A0FEF705F800BF502080F3CB
:1043B0001188BFF34F8FBFF36F8F00BF00BFFEE7C1
:1043C0003846BDE8F08100009E5700082E2E5C465E
:1043D00072656552544F535F536F757263655C71BC
:1043E000756575652E6300004572723A2573202548
:1043F000732025640D0A000004ED00E02DE9FF4361
:1044000083B0064688461D464FF0000934468CB9F5
:104410004FF45373634A64A16AA0FDF7CBFF00BF5A
:10442000502080F31188BFF34F8FBFF36F8F00BF11
:1044300000BFFEE7B8F1000F01D1206C08B90120E0
:1044400000E0002088B940F24D33564A56A15DA0E5
:10445000FDF7B0FF00BF502080F31188BFF34F8FEE
:10446000BFF36F8F00BF00BFFEE7022D02D1E06BEC
:10447000012801D1012000E0002088B940F24E332C
:10448000484A49A14FA0FDF795FF00BF502080F397
:104490001188BFF34F8FBFF36F8F00BF00BFFEE7E0
:1044A00000BFFFF741FAA06BE16B884201D3022DF8
:1044B00028D12A4641462046FEF77DFE0746606A1F
:1044C00008B9012000E0002068B904F1240000F0E0
:1044D00087FB88B14FF080503E490860BFF34F8F93
:1044E000BFF36F8F08E03FB14FF08050394908604B
:1044F000BFF34F8FBFF36F8FFFF760FA012007B054
:10450000BDE8F083059818B9FFF758FA0020F6E7E0
:10451000B9F1000F04D101A8FFF75CFB4FF00109CE
:10452000FFF74CFAFFF72EFDFFF7FEF994F9440070
:10453000401C10B9002084F8440094F94500401C48
:1045400010B9002084F84500FFF738FA05A901A842
:1045500000F008F9F0B92046FEF7D9FFA0B104F148
:1045600010000599FFF748FB2046FFF781F800F09F
:10457000E7FB002895D14FF0805016490860BFF343
:104580004F8FBFF36F8F8CE72046FFF771F800F075
:10459000D7FB86E72046FFF76BF800F0D1FB002041
:1045A000ADE70000155800082E2E5C467265655276
:1045B000544F535F536F757263655C7175657565B4
:1045C0002E6300004572723A2573202573202564FE
:1045D0000D0A000004ED00E02DE9F74183B0054627
:1045E0000E464FF000082C468CB940F26B53504AEF
:1045F00050A157A0FDF7DEFE00BF502080F31188C8
:10460000BFF34F8FBFF36F8F00BF00BFFEE70EB940
:10461000206C08B9012000E0002088B940F26F53F7
:10462000434A44A14AA0FDF7C5FE00BF502080F3D5
:104630001188BFF34F8FBFF36F8F00BF00BFFEE73E
:1046400000BFFFF771F9A76BF7B131462046FEF7BF
:104650009DFD781EA063206908B9012000E00020BC
:1046600060B904F1100000F0BBFA38B14FF080508F
:104670003B490860BFF34F8FBFF36F8FFFF79EF981
:10468000012006B0BDE8F081059818B9FFF796F94A
:104690000020F6E7B8F1000F04D101A8FFF79AFA5D
:1046A0004FF00108FFF78AF9FFF76CFCFFF73CF9C0
:1046B00094F94400401C10B9002084F8440094F997
:1046C0004500401C10B9002084F84500FFF776F93A
:1046D00005A901A800F046F8F0B92046FEF70AFF48
:1046E000A0B104F124000599FFF786FA2046FEF7F1
:1046F000BFFF00F025FB0028A3D14FF080501849E0
:104700000860BFF34F8FBFF36F8F9AE72046FEF725
:10471000AFFF00F015FB94E72046FEF7A9FF00F07D
:104720000FFB2046FEF7E6FE00288AD00020A8E70F
:10473000525800082E2E5C4672656552544F535FE6
:10474000536F757263655C71756575652E630000E6
:104750004572723A25732025732025640D0A0000E6
:1047600004ED00E070B505460C468DB940F6EF4308
:10477000254A26A12CA0FDF71DFE00BF502080F386
:104780001188BFF34F8FBFF36F8F00BF00BFFEE7ED
:104790008CB94FF44F631C4A1CA123A0FDF70AFEFD
:1047A00000BF502080F31188BFF34F8FBFF36F8F8E
:1047B00000BF00BFFEE7FFF7B7F81F480268686850
:1047C000131A2068401C08B9002619E01B49286804
:1047D0000968884206D06868904203D80126002004
:1047E00020600DE02068984207D92068C01A206038
:1047F0002846FFF7EFF9002602E00020206001269E
:10480000FFF7DCF8304670BDF75A00082E2E5C46E4
:1048100072656552544F535F536F757263655C7474
:1048200061736B732E6300004572723A2573202505
:10483000732025640D0A0000A0000010B4000010D1
:104840002DE9FF4F85B0804689461746DDE912AB5A
:10485000B800FEF74DFF064676B16C20FEF748FF24
:1048600004462CB16C212046FBF723FD266304E0AF
:104870003046FFF7E1F800E000247CB10020CDE9EC
:1048800000ABCDE902403A4649464046089BFEF758
:104890003DFD2046FEF7E0FB012501E04FF0FF352E
:1048A000284609B0BDE8F08F2DE9F0414FF000082F
:1048B0006548006800287DD164480068451C63484D
:1048C0000560002D29D162480068006808B9012000
:1048D00000E0002088B940F6B7235E4A5EA165A0DB
:1048E000FDF768FD00BF502080F31188BFF34F8FA4
:1048F000BFF36F8F00BF00BFFEE7554807686148F0
:104900000068534908605F4807605F480068401CC2
:104910005D490860FEF70AFE00BF5C4800688542FA
:1049200077D300BF4A480068006808B9012000E05A
:10493000002020B14FF0FF305449086068E044483F
:104940000068C068C4686668B54202D24F48066015
:104950005EE06069D4E902128A60D4E902214A600B
:10496000211D42688A4201D1E168416000226261F2
:104970000168491E0160A06A98B1A06AD4E90712D3
:104980008A60D4E907214A6004F1180142688A422A
:1049900001D1216A41600022A2620168491E0160C2
:1049A00000BF94F82C100120884039490968084359
:1049B000374900E03FE00860E16A01EB8101354AD8
:1049C00002EB81014868A0608268E260211D826874
:1049D00051608160E16A01EB81012E4A02EB8102A4
:1049E0006261E16A01EB81012A4A52F82110491CF7
:1049F000E26A02EB8202274B43F822102649E06A62
:104A00000968C96A88428DD94FF001088AE700E039
:104A100000BF21480068C06A00EB80001D4951F8C2
:104A20002000012801D94FF001081C48006808B196
:104A30004FF0010804E01A480068401C184908605B
:104A40004046BDE8F0810000C8000010A000001042
:104A5000900000104C5A00082E2E5C46726565527C
:104A6000544F535F536F757263655C7461736B73FE
:104A70002E6300004572723A257320257320256449
:104A80000D0A000094000010B4000010BC000010DB
:104A9000A4000010DC0400108C000010B000001016
:104AA000AC00001070B505462C460026002D76D0CF
:104AB0003C480068844201D1012000E0002088B910
:104AC00041F24803384A39A13FA0FDF773FC00BF0B
:104AD000502080F31188BFF34F8FBFF36F8F00BF5B
:104AE00000BFFEE7206E88B941F249032E4A2FA18C
:104AF00035A0FDF75FFC00BF502080F31188BFF3A5
:104B00004F8FBFF36F8F00BF00BFFEE7206E401EC8
:104B10002066E16DE06A884241D0206E00283ED1D7
:104B2000201DFEF7B7FE40B994F82C1001208840F4
:104B300029490968814328480160E06DE062E06A24
:104B4000C0F12000A06194F82C1001208840224977
:104B50000968084320490860E16A01EB81011F4AA6
:104B600002EB81014868A0608268E260211D8268D2
:104B700051608160E16A01EB8101184A02EB810218
:104B80006261E16A01EB8101144A52F82110491C6B
:104B9000E26A02EB8202114B43F8221001263046F2
:104BA00070BD00008C0000100C5B00082E2E5C46CF
:104BB00072656552544F535F536F757263655C74D1
:104BC00061736B732E6300004572723A2573202562
:104BD000732025640D0A0000A4000010DC040010FE
:104BE00070B50646F068C4688CB940F67443424A12
:104BF00042A149A0FDF7DEFB00BF502080F31188E1
:104C0000BFF34F8FBFF36F8F00BF00BFFEE7A06AF7
:104C1000D4E907128A60D4E907214A6004F1180137
:104C200042688A4201D1216A41600022A262016881
:104C3000491E01603C48006800283DD16069D4E904
:104C400002128A60D4E902214A60211D42688A4228
:104C500001D1E1684160002262610168491E016082
:104C600094F82C10012088403049096808432F49E6
:104C70000860E16A01EB81012D4A02EB810148687D
:104C8000A0608268E260211D826851608160E16AF3
:104C900001EB8101264A02EB81026261E16A01EBCC
:104CA0008101234A52F82110491CE26A02EB820278
:104CB0001F4B43F8221010E01E494868E0618268EB
:104CC000226204F11801826851608160194AA2626F
:104CD00011460968491C116000BF1749E06A09685C
:104CE000C96A884204D9012501201449086000E0FE
:104CF0000025284670BD0000A75A00082E2E5C46ED
:104D000072656552544F535F536F757263655C747F
:104D100061736B732E6300004572723A2573202510
:104D2000732025640D0A0000C8000010A4000010C4
:104D3000DC040010840700108C000010B00000108C
:104D400070B5002400265648006888B940F68503EF
:104D5000544A55A15BA0FDF72DFB00BF502080F306
:104D60001188BFF34F8FBFF36F8F00BF00BFFEE707
:104D7000FEF7DAFD4A480068401E494908600846C7
:104D8000006800287ED15348006800287AD05BE094
:104D90005148C068C468A06AD4E907128A60D4E99F
:104DA00007214A6004F1180142688A4201D1216A50
:104DB00041600022A2620168491E01606069D4E975
:104DC00002128A60D4E902214A60211D42688A42A7
:104DD00001D1E1684160002262610168491E016001
:104DE00094F82C10012088403C49096808433B494D
:104DF0000860E16A01EB8101394A02EB81014868F0
:104E0000A0608268E260211D826851608160E16A71
:104E100001EB8101324A02EB81026261E16A01EB3E
:104E200081012F4A52F82110491CE26A02EB8202EA
:104E30002B4B43F822102B49E06A0968C96A884263
:104E400002D30120284908602348006808B90120DE
:104E500000E0002000289BD00CB1FEF767FB234840
:104E6000056865B100BFFFF71FFD10B101201E49A5
:104E700008606D1E002DF6D100201C4908601A48FC
:104E8000006800E008E038B10126300718490860E2
:104E9000BFF34F8FBFF36F8FFEF790FD304670BDAD
:104EA000C80000101D5A00082E2E5C46726565521F
:104EB000544F535F536F757263655C7461736B73AA
:104EC0002E6300004572723A2573202573202564F5
:104ED0000D0A00009C00001084070010A4000010C0
:104EE000DC0400108C000010B0000010AC000010BA
:104EF00004ED00E00000000000000000002F0000B2
:104F000000000700070000147F147F1400242A7F8C
:104F10002A1200626408132300364955225000000B
:104F20000503000000001C224100000041221C007B
:104F30000014083E08140008083E0808000000A0FD
:104F400060000008080808080000606000000020F9
:104F500010080402003E5149453E0000427F4000D7
:104F6000004261514946002141454B31001814125D
:104F70007F10002745454539003C4A49493000012A
:104F80007109050300364949493600064949291E79
:104F900000003636000000005636000000081422DB
:104FA00041000014141414140000412214080002DB
:104FB0000151090600324959513E007C1211127C00
:104FC000007F49494936003E41414122007F41412D
:104FD000221C007F49494941007F09090901003E1F
:104FE0004149497A007F0808087F0000417F41005D
:104FF000002040413F01007F08142241007F4040D3
:105000004040007F020C027F007F0408107F003EBA
:105010004141413E007F09090906003E4151215EA0
:10502000007F091929460046494949310001017F9D
:105030000101003F4040403F001F2040201F003F33
:105040004038403F006314081463000708700807E5
:1050500000615149454300007F41410000552A55F8
:105060002A55000041417F00000402010204004073
:105070004040404000000102040000205454547895
:10508000007F4844443800384444442000384444B5
:10509000487F00385454541800087E090102001853
:1050A000A4A4A47C007F080404780000447D400090
:1050B000004080847D00007F102844000000417F74
:1050C0004000007C04180478007C08040478003850
:1050D0004444443800FC242424180018242418FCD8
:1050E000007C0804040800485454542000043F4441
:1050F0004020003C4040207C001C2040201C003C04
:105100004030403C004428102844001CA0A0A07C53
:10511000004464544C44141414141414000000008B
:10512000000000000000000000000000000000F887
:1051300000000000000000333000000000100C06EA
:10514000100C0600000000000000000040C0784085
:10515000C0784000043F04043F040400007088FC51
:1051600008300000001820FF211E0000F008F000A9
:10517000E018000000211C031E211E0000F008881A
:10518000700000001E2123241927211010160E0084
:10519000000000000000000000000000000000E02F
:1051A0001804020000000007182040000002041844
:1051B000E00000000040201807000000404080F0A0
:1051C000804040000202010F01020200000000F0D6
:1051D000000000000101011F0101010000000000AA
:1051E0000000000080B0700000000000000000001F
:1051F00000000000000101010101010100000000A8
:10520000000000000030300000000000000000003E
:1052100080601804006018060100000000E010081B
:105220000810E000000F102020100F00001010F8F0
:10523000000000000020203F20200000007008082F
:1052400008887000003028242221300000300888AF
:10525000884830000018202020110E000000C020D7
:1052600010F8000000070424243F240000F80888F8
:10527000880808000019212020110E0000E0108885
:1052800088180000000F112020110E0000380808B7
:10529000C83808000000003F0000000000708808C7
:1052A00008887000001C222121221C0000E0100848
:1052B0000810E0000000312222110F00000000C0A1
:1052C000C00000000000003030000000000000803E
:1052D000000000000000806000000000000080402E
:1052E0002010080000010204081020004040404047
:1052F000404040000404040404040400000810209A
:1053000040800000002010080402010000704808DE
:105310000808F0000000003036010000C030C82846
:10532000E810E0000718272423140B000000C03801
:10533000E0000000203C23020227382008F888887B
:1053400088700000203F202020110E00C030080887
:1053500008083800071820202010080008F808085E
:105360000810E000203F202020100F0008F8888857
:10537000E8081000203F20202320180008F8888823
:10538000E8081000203F200003000000C03008089B
:105390000838000007182020221E020008F8080024
:1053A0000008F808203F210101213F20000808F8EB
:1053B000080800000020203F20200000000008080E
:1053C000F8080800C08080807F00000008F888C0CE
:1053D00028180800203F20012638200008F808007F
:1053E00000000000203F20202020300008F8F800B6
:1053F000F8F80800203F003F003F200008F830C0C8
:105400000008F808203F200007183F00E0100808B7
:105410000810E0000F10202020100F0008F80808E6
:105420000808F000203F210101010000E0100808F9
:105430000810E0000F18242438504F0008F888881E
:1054400088887000203F2000030C302000708808FE
:10545000080838000038202121221C00180808F80C
:10546000080818000000203F2000000008F808008D
:105470000008F808001F202020201F00087888005E
:1054800000C83808000007380E010000F80800F8CE
:105490000008F800033C0700073C03000818688078
:1054A0008068180820302C03032C30200838C800EE
:1054B000C83808000000203F20000000100808083D
:1054C000C83808002038262120201800000000FEDF
:1054D000020202000000007F40404000000C30C08B
:1054E00000000000000000010638C00000020202B7
:1054F000FE000000004040407F0000000000040269
:105500000202040000000000000000000000000093
:105510000000000080808080808080800002020483
:10552000000000000000000000000000000080807B
:10553000808000000019242222223F2008F80080E9
:1055400080000000003F112020110E0000000080AC
:1055500080800000000E112020201100000000803B
:105560008088F800000E112020103F20000080806D
:1055700080800000001F222222221300008080F081
:10558000888888180020203F2020000000008080AC
:1055900080808000006B94949493600008F80080F1
:1055A00080800000203F210000203F20008098984C
:1055B000000000000020203F2020000000000080AC
:1055C0009898000000C08080807F000008F80000EC
:1055D00080808000203F24022D302000000808F841
:1055E000000000000020203F2020000080808080FC
:1055F00080808000203F20003F20003F808000808E
:1056000080800000203F210000203F20000080809B
:1056100080800000001F202020201F00808000804C
:105620008000000080FFA12020110E0000000080FB
:1056300080808000000E112020A0FF8080808000EC
:105640008080800020203F21200001000000808019
:10565000808080000033242424241900008080E00E
:10566000808000000000001F2020000080800000DB
:1056700000808000001F202020103F2080808000BC
:105680000080808000010E300806010080800080CC
:10569000008080800F300C030C300F0000808000F1
:1056A000808080000020312E0E312000808080001C
:1056B0000080808080818E701806010000808080CC
:1056C000808080000021302C22213000000000006A
:1056D000807C020200000000003F4040000000000B
:1056E000FF00000000000000FF0000000002027C3C
:1056F000800000000040403F000000000006010163
:105700000202040400000000000000007076506FE8
:1057100072744D616C6C6F630076506F7274467278
:105720006565007072765461736B45786974457273
:10573000726F720078506F72745374617274536335
:10574000686564756C65720076506F7274456E643E
:105750005363686564756C65720076506F7274454A
:105760006E746572437269746963616C0076506F20
:10577000727445786974437269746963616C007608
:10578000506F727456616C6964617465496E7465BA
:1057900072727570745072696F72697479007851A1
:1057A0007565756547656E65726963526573657485
:1057B0000078517565756547656E657269634372FA
:1057C0006561746500785175657565476976654DE5
:1057D0007574657852656375727369766500785182
:1057E0007565756554616B654D7574657852656353
:1057F0007572736976650078517565756543726574
:10580000617465436F756E74696E6753656D617021
:10581000686F72650078517565756547656E65726C
:10582000696353656E640078517565756547656E8B
:105830006572696353656E6446726F6D49535200B9
:105840007851756575654769766546726F6D495320
:1058500052007851756575655265636569766500B6
:1058600078517565756553656D6170686F726554C3
:10587000616B65007851756575655065656B00787D
:1058800051756575655265636569766546726F6DBC
:10589000495352007851756575655065656B467260
:1058A0006F6D49535200757851756575654D657317
:1058B000736167657357616974696E6700757851C4
:1058C00075657565537061636573417661696C6177
:1058D000626C6500757851756575654D65737361AA
:1058E00067657357616974696E6746726F6D495376
:1058F000520076517565756544656C657465007810
:10590000517565756549735175657565456D70743B
:105910007946726F6D4953520078517565756549C6
:1059200073517565756546756C6C46726F6D49533C
:105930005200765175657565416464546F526567B0
:105940006973747279007063517565756547657424
:105950004E616D6500765175657565556E7265674A
:105960006973746572517565756500707276496EFC
:10597000697469616C6973654E65775461736B0016
:10598000765461736B44656C65746500785461731B
:105990006B44656C6179556E74696C007654617303
:1059A0006B44656C617900655461736B4765745332
:1059B0007461746500765461736B5072696F7269BB
:1059C000747953657400765461736B5375737065A5
:1059D0006E64007072765461736B49735461736BBB
:1059E00053757370656E64656400765461736B52B1
:1059F0006573756D6500785461736B526573756D71
:105A00006546726F6D49535200765461736B5374DF
:105A10006172745363686564756C65720078546173
:105A2000736B526573756D65416C6C007063546186
:105A3000736B4765744E616D6500785461736B4399
:105A40006174636855705469636B73007854617353
:105A50006B496E6372656D656E745469636B007635
:105A60005461736B537769746368436F6E746578C0
:105A70007400765461736B506C6163654F6E45764C
:105A8000656E744C69737400765461736B506C610D
:105A900063654F6E556E6F726465726564457665B9
:105AA0006E744C69737400785461736B52656D6FDA
:105AB000766546726F6D4576656E744C69737400D9
:105AC000765461736B52656D6F766546726F6D5576
:105AD0006E6F7264657265644576656E744C697349
